:100000000AEF00F0FFFFFFFFE9CF73F1EACF74F1D1
:10001000FAEF01F0F86A00EE70F0500EF66E000E86
:10002000F76E10EE6AF01FEC00F000EE00F0700EBC
:10003000EE6AE806FDE1000EF86E5DEF00F00900E3
:10004000F5CFEEFFE550E150FAE1E250F8E11200A1
:100050003F0006005B004F0066006D007D0007005A
:100060007F006F0077007C0039005E00790071002E
:1000700000000000000000000000000000006F0011
:10008000760030000E00700038001D001C005C007F
:100090007300630050006D0078003E001C005500A6
:1000A00076006E005B000000000000000000000011
:1000B0000000000000004C4B02000F01256B246B78
:1000C000236B0101006B800E036F250E046F000E81
:1000D000056F000E066F27EC07F0B8EC05F0B60EC2
:1000E0000F6F7F0E106F000E82EC04F0000EA8EC74
:1000F00007F008EC09F0A20E01010F6F7F0E106FE0
:10010000000E82EC04F0000EA8EC07F049EC09F0B8
:10011000C00E01010F6F7F0E106F000E82EC04F015
:10012000000EA8EC07F0800E036F250E046F000E82
:10013000056F000E066F87EC06F0F28CF28E82904F
:10014000F20E01010F6F7F0E106F000E82EC04F0B3
:10015000000E76EC08F0C2EC08F003C166F004C1B2
:1001600067F0970E01010F6F7F0E106F000E82EC8B
:1001700004F0000EA8EC07F0B5EC03F066C011F136
:1001800067C012F1F60E01010F6F7F0E106F000EA7
:1001900082EC04F0000EA8EC07F0E6EF01F0CA0EC6
:1001A0000F6F7F0E106F000E82EC04F0000EA8ECB3
:1001B00007F0EE0E036F700E27EC09F03C0E000105
:1001C000665D520E6759D8B0E8EF00F0EAEF00F034
:1001D000EDEF00F0010E0101006FF6EF01F0EF0E00
:1001E000036F700E27EC09F0E20E01010F6F7F0E16
:1001F000106F000E82EC04F0000EA8EC07F0E90E80
:100200000001645D030E6559D8A009EF01F00BEF02
:1002100001F010EF01F0020E0101006FEDEF00F0B0
:10022000010E0101006FF6EF01F0ED0E036F700E8D
:1002300027EC09F0EA0E01010F6F7F0E106F000E20
:1002400082EC04F0000EA8EC07F0B5EC03F0D96ADC
:100250002AEF01F0E90E0001645D030E6559D8A094
:1002600034EF01F036EF01F05DEF01F0A40E645DB4
:10027000060E6559D8B03FEF01F041EF01F05DEF98
:1002800001F064510101015D000165510101025954
:10029000D8B04DEF01F04FEF01F053EF01F064C023
:1002A00001F165C002F1030E006F010E056F000E33
:1002B000066FE5EC08F066EF01F0EF0E0101036F49
:1002C000700E27EC09F0040E0101006FD92A950E7B
:1002D000D9646DEF01F06FEF01F02AEF01F001C179
:1002E00064F002C165F0C40E056F090E066FE5ECFF
:1002F00008F0F6EF01F0EF0E036F700E27EC09F037
:10030000E70E0101036F700E27EC09F0D20E010118
:100310000F6F7F0E106F000E82EC04F0000EA8EC41
:1003200007F064C011F165C012F1F70E0F6F7F0E78
:10033000106F000E82EC04F0000E9FEC08F064C019
:1003400003F165C004F15EEC09F0C80E056F320ED2
:10035000066FE5EC08F0EF0E036F700E27EC09F066
:10036000B90E0001665D0B0E6759D8A0BAEF01F017
:10037000BCEF01F0EDEF00F00101006BF6EF01F0D2
:10038000DA0E0F6F7F0E106F000E82EC04F0000E7D
:10039000A8EC07F0FA0E0F6F7F0E106F000E82ECC4
:1003A00004F0000E76EC08F0B90E0001665D0B0E4D
:1003B0006759D8A0DEEF01F0E0EF01F0EDEF00F0BB
:1003C0000101006B56EC09F0F6EF01F00051000A54
:1003D00001E1E5D6010A01E102D7030A01E125D7CF
:1003E000010A89E0070ACCE0F6EF01F0ABEF00F07C
:1003F0000AEF00F0A0AAFFEF01F001EF02F0E1EF39
:1004000002F0A1AA06EF02F008EF02F0E1EF02F01D
:10041000A19ACFEF02F00DEF02F0ACA212EF02F0C2
:1004200014EF02F00DEF02F00E01FEB11AEF02F030
:100430001CEF02F025EF02F04050FE0B0F01026F9F
:10044000010E00016D6F010E686FE1EF02F029EF00
:1004500002F0ACA22EEF02F030EF02F029EF02F032
:100460000E01FEAD36EF02F038EF02F041EF02F080
:100470000E01FE85020E00016D6F010E6F6F25EFFC
:1004800002F0000168516C5DD8A049EF02F04BEF1B
:1004900002F056EF02F06851400FE96EEA6AEF5041
:1004A0000F01026F0001682B6BEF02F040A05BEFC1
:1004B00002F05DEF02F064EF02F00E01FE83030E26
:1004C00000016D6F6BEF02F00E01FE85020E000160
:1004D0006D6F010E6F6FE1EF02F06FEF02F0ACA2F3
:1004E00074EF02F076EF02F06FEF02F06D6BE1EF68
:1004F00002F07BEF02F0ACA280EF02F082EF02F09C
:100500007BEF02F040C002FF040E6D6FE1EF02F0DE
:100510008AEF02F0ACA28FEF02F091EF02F08AEFC7
:1005200002F00E01FEAD97EF02F099EF02F0A2EF9C
:1005300002F00E01FE85020E00016D6F010E6F6F5D
:1005400025EF02F00E01FE870E01FE8B050E000165
:100550006D6F686BE1EF02F0AEEF02F0ACA2B3EFAB
:1005600002F0B5EF02F0AEEF02F06851430FE96E12
:10057000EA6A0F0102CFEFFF0001682B6B5168633D
:10058000C4EF02F0C6EF02F025EF02F00E01FE8587
:10059000020E00016D6F010E6E6FE1EF02F00001BF
:1005A0006D51000A01E137D7010A01E150D7030A72
:1005B00094E0010A9EE0070AABE0010ACDE0E1EF1A
:1005C00002F074C1EAFF73C1E9FF110000EE70F0A0
:1005D00011EE0AF0660EEECFE6FFE82EEBEF02F02A
:1005E0009BEF03F00851310AD8A4F9EF02F0FBEFBA
:1005F00002F0FEEF02F0678CFFEF02F0679C0951FA
:10060000D8B405EF03F007EF03F00AEF03F0678EAD
:100610000BEF03F0679E686A0851020DF3CF70F18B
:10062000A00E70270A0E7025E96EEA6A010EEA2212
:10063000EF50686E0951D8B420EF03F022EF03F0B9
:1006400025EF03F0688E26EF03F0689EF00E661625
:100650001F0E69160951D8B430EF03F032EF03F0E2
:1006600035EF03F06A8057EF03F06A900851020DEE
:10067000F3CF70F1A00E70270A0E7025E96EEA6ABA
:10068000010EEA22EF500F0B66120851020DF3CF54
:1006900070F1A00E70270A0E7025E96EEA6A010E4D
:1006A000EA22EF50716FD8907135E00B69126F0E2E
:1006B0006616E00E67160851020DF3CF70F1A00E1A
:1006C00070270A0E7025E96EEA6A010EEA22EF50E1
:1006D000716F7139F00B100B66120851020DF3CFD8
:1006E00070F1A00E70270A0E7025E96EEA6A010EFD
:1006F000EA22EF50716F060E726FD8907137722F29
:100700007DEF03F07151800B66120851020DF3CF9B
:1007100070F1A00E70270A0E7025E96EEA6A010ECC
:10072000EA22EF50716FD8907133D89071311F0B5E
:100730006712B4EF03F006C170F107C171F1AFEFBA
:1007400003F07051000A01E14DD7010A01E163D7BE
:10075000030A01E17BD7010AAAE0B4EF03F071516B
:10076000000AEFE0B4EF03F01200000E036F020E78
:10077000046F000EF36E020EF46E980E1F6F490E9A
:10078000206F000E216F000E226F000E1B6F000EF7
:100790001C6F000E1D6F000E1E6F4C0E176F4B0E60
:1007A000186F000E196F000E1A6F020E136F000EF5
:1007B000146F000E156F000E166F0001010166C068
:1007C0000FF10001010167C010F1116B126B30ECE9
:1007D00006F00FC169F010C16AF0EFEF03F0D89096
:1007E000F334056FF434066F640E0525F66E770E4C
:1007F0000621F76E0900F5CF07F10900F5CF08F1E2
:1008000007510001695D0101085100016A59D8B022
:100810000CEF04F00EEF04F017EF04F00101031DDC
:10082000056F041D066F0551F3160651F4160101FC
:10083000D890043303330351F3120451F4120451DA
:100840000311D8A426EF04F028EF04F0EFEF03F033
:10085000010EF324056F000EF420066F05C11FF191
:1008600006C120F1216B226BF3CF1BF1F4CF1CF1F9
:100870001D6B1E6BD890F334076FF434086F020EB3
:100880000727000E0823640E0725F66E770E082151
:10089000F76E0900F5CF09F10900F5CF0AF109C19A
:1008A00017F10AC118F1196B1A6BD890F3340B6F5A
:1008B000F4340C6F640E0B25F66E770E0C21F76E78
:1008C0000900F5CF0DF10900F5CF0EF10DC113F1BF
:1008D0000EC114F1156B166B0001010169C00FF117
:1008E000000101016AC010F1116B126B30EC06F0CF
:1008F0000FC164F010C165F00001E40E6427020E20
:1009000065231200E8CFE1FF110E156F010E166F7F
:100910001DEF05F0F350250AD8B491EF04F093EFE2
:1009200004F09BEF04F0E150E96EEA6AF3CFEFFFC9
:10093000E12A1DEF05F0A3EF04F02DEF05F01DEF08
:1009400005F0B3EF04F00FC1F6FF10C1F7FF0F4B36
:10095000102B0800F5CFD9FFD950000AEEE0750A38
:10096000F0E09FEF04F015C1E9FF16C1EAFF020EA7
:100970001527000E1623EECF17F1EDCF18F1010E5B
:10098000D96EC3EF04F0D950020D640EF324F66E55
:10099000F76A7F0EF7220900F5CF1CF10900F5CFA9
:1009A0001DF11C51175D1D511859D8B0DAEF04F034
:1009B000DCEF04F0DEEF04F0E8EF04F0D92AD950C0
:1009C000050AD8A4E6EF04F0E8EF04F0C3EF04F062
:1009D000D9CF13F113EF05F01351020D640EF32478
:1009E000F66EF76A7F0EF7220900F5CF20F10A00B4
:1009F000F5CF21F117C11EF118C11FF16EEC07F000
:100A00001EC11EF11FC11FF10A0E206F000E216FC3
:100A1000DDEC07F01E51300F146FE150E96EEA6A09
:100A200014C1EFFFE12A130701011329D8A41BEF1A
:100A300005F01DEF05F0ECEF04F00FC1F6FF10C15B
:100A4000F7FF0F4B102B0800F5CFF3FFF3662BEFEA
:100A500005F02DEF05F08AEF04F0E150E96EEA6A47
:100A6000000EEF6E34EF05F01200E16A2AAF3BEFA3
:100A700005F03DEF05F047EF05F02A1F291F281F5D
:100A8000276D000E282329232A23010EE16E26AFAD
:100A90004CEF05F04EEF05F058EF05F0261F251F2F
:100AA000241F236D000E242325232623010EE11A83
:100AB0002B6B2C6B2D6B2E6B2A51271128112911B2
:100AC000D8B465EF05F067EF05F09DEF05F0010E76
:100AD000D96E71EF05F0D8902737283729372A3794
:100AE000D92A2AAF76EF05F078EF05F06BEF05F025
:100AF000D8902B372C372D372E372751235D28518F
:100B00002459295125592A512659D8A08AEF05F090
:100B10008CEF05F095EF05F02751235F2851245BFA
:100B20002951255B2A51265B2B81D8902A33293302
:100B300028332733D92E78EF05F0E150D8B4A3EF4E
:100B400005F0A5EF05F0ADEF05F02E1F2D1F2C1FB2
:100B50002B6D000E2C232D232E232BC123F12CC112
:100B600024F12DC125F12EC126F1B7EF05F01200B9
:100B70000F01256B929092849296979E8696C80E4E
:100B80000101056F000E066FE5EC08F08686C80EC1
:100B90000101056F000E066FE5EC08F0859E060E5C
:100BA00044EC08F0858E859E420E44EC08F0000E61
:100BB00044EC08F0300E44EC08F0858E859E220E41
:100BC00044EC08F0000E44EC08F0FF0E44EC08F092
:100BD0000101036F858E859E010103C111F1126B26
:100BE000F60E0F6F7F0E106F000E82EC04F0000EF9
:100BF000A8EC07F0430E44EC08F0000E44EC08F0BB
:100C0000600E44EC08F0858E859E230E44EC08F0BF
:100C1000000E44EC08F0FF0E44EC08F00101046FF4
:100C2000858E859E4A0E44EC08F0000E44EC08F0D8
:100C3000080E44EC08F0858E859E120E44EC08F0F8
:100C4000858E010104C111F1126BF60E0F6F7F0E3C
:100C5000106F000E82EC04F0000EA8EC07F01200FA
:100C600016511A1908E11551191905E114511819ED
:100C700002E113511719D8A440EF06F042EF06F035
:100C800048EF06F00F6B106B116B126B86EF06F0DE
:100C90001B511F5D276F1C512059286F1D51215971
:100CA000296F1E5122592A6F13510F5D236F145162
:100CB0001059246F15511159256F16511259266F6D
:100CC00011EC08F023C123F124C124F125C125F141
:100CD00026C126F11351175D276F14511859286F3B
:100CE00015511959296F16511A592A6F35EC05F00B
:100CF0001B5123250F6F1C512421106F1D512521DD
:100D0000116F1E512621126F86EF06F01200989087
:100D10008680000E0101076F090E086F3D0E096FF6
:100D2000000E0A6F040E0B6FD8900A330933083394
:100D300007330B2F94EF06F003C113F104C114F134
:100D400005C115F106C116F107C10FF108C110F177
:100D500009C111F10AC112F1D7EC06F00FC107F178
:100D600010C108F111C109F112C10AF10707000E03
:100D7000085B095B0A5B0F01209707C11EFF989271
:100D800098840F0121990F01228F0F0121850F01F6
:100D9000218B0F0122898B0E01010F6F7F0E106FC7
:100DA000000E82EC04F0000EA8EC07F01200176BA6
:100DB000186B196B1A6B1651131114111511D8B445
:100DC000E4EF06F0E6EF06F01CEF07F0010ED96E37
:100DD000F0EF06F0D8901337143715371637D92AA5
:100DE00016AFF5EF06F0F7EF06F0EAEF06F0D89051
:100DF0001737183719371A3713510F5D1451105917
:100E00001551115916511259D8A009EF07F00BEFDF
:100E100007F014EF07F013510F5F1451105B1551D9
:100E2000115B1651125B1781D890163315331433AA
:100E30001333D92EF7EF06F017C10FF118C110F1D7
:100E400019C111F11AC112F126EF07F01200000EBC
:100E5000076F090E086F3D0E096F000E0A6F040E32
:100E60000B6FD8900A330933083307330B2F31EF58
:100E700007F003C113F104C114F105C115F106C156
:100E800016F107C10FF108C110F109C111F10AC132
:100E900012F1D7EC06F00FC107F110C108F111C132
:100EA00009F112C10AF10707000E085B095B0A5B32
:100EB000659607C1AFFF949C948EAC98AB8EAC84C2
:100EC000AC8AAB88AC0E01010F6F7F0E106F000E65
:100ED00082EC04F0000EA8EC07F01200F36AF46A4A
:100EE00021512011D8B477EF07F079EF07F0A1EF87
:100EF00007F0010ED96E81EF07F0D8902037213727
:100F0000D92A21AF86EF07F088EF07F07DEF07F0D1
:100F1000D890F336F43620511E5D21511F59D8A0C8
:100F200094EF07F096EF07F09BEF07F020511E5F5C
:100F300021511F5BF380D89021332033D92E88EFC5
:100F400007F0F3CF1EF1F4CF1FF1A7EF07F0120067
:100F5000E8CFD9FFD1EF07F0AEEF07F0ACA2B3EFC7
:100F600007F0B5EF07F0AEEF07F0D950E96EEA6A87
:100F70000A0EEF62BEEF07F0C0EF07F0CBEF07F00D
:100F80000D0EAD6EC4EF07F0ACA2C9EF07F0CBEFCA
:100F900007F0C4EF07F0D950E96EEA6AEF50AD6E82
:100FA000D92AD950E96EEA6AEF50D8A4DAEF07F0EF
:100FB000DCEF07F0ACEF07F0120021512011D8B49C
:100FC000E4EF07F0E6EF07F00AEF08F0010ED96E44
:100FD000EEEF07F0D89020372137D92A21AFF3EF71
:100FE00007F0F5EF07F0EAEF07F020511E5D215101
:100FF0001F59D8A0FEEF07F000EF08F004EF08F04B
:1010000020511E5F21511F5BD89021332033D92EF0
:10101000F5EF07F01EC11EF11FC11FF110EF08F020
:1010200012002B6B2C6B2D6B2E6B23A11AEF08F08B
:101030001CEF08F024EF08F027512B2728512C2310
:1010400029512D232A512E23D89027372837293785
:101050002A37D890263325332433233326512311BE
:1010600024112511D8A437EF08F039EF08F015EF57
:1010700008F02BC123F12CC124F12DC125F12EC183
:1010800026F143EF08F01200E8CFF3FFD96AF46AC3
:10109000800EE16EE96A4DEF08F0F350E1140009AB
:1010A000D8B455EF08F057EF08F05AEF08F08086F3
:1010B0005BEF08F080968080D890D93680A463EFEB
:1010C00008F065EF08F066EF08F0D9808090D890BE
:1010D000E132E92A070EE96470EF08F072EF08F0D8
:1010E0004DEF08F0D95075EF08F01200E8CFD9FFA6
:1010F000010E036F000E046F90EF08F0000E096FF1
:10110000D9500325056F0505E96EEA6AEF50086FAF
:1011100003C106F104C107F1E6EC02F0034B042B16
:10112000D9500325056F0505E96EEA6AEF50D8A48A
:101130009CEF08F09EEF08F07EEF08F01200E8CF79
:10114000D9FF036B046BB5EF08F0000E096FD9509F
:101150000325E96EEA6AEF50086F03C106F104C186
:1011600007F1E6EC02F0034B042BD9500325E96E9E
:10117000EA6AEF50D8A4BFEF08F0C1EF08F0A5EF7E
:1011800008F01200859EC5EF08F080B4CAEF08F0A1
:10119000CCEF08F0C5EF08F0FF0E44EC08F00101B9
:1011A000056F066B0551066F056BFF0E44EC08F0EA
:1011B00001010513120E44EC08F0858E05C103F100
:1011C00006C104F1E4EF08F01200F36AF46AFCEFE0
:1011D00008F0076B086BEDEF08F0074B082B5D0E6E
:1011E000075D000E0859D8A0F8EF08F0FAEF08F0F4
:1011F000EDEF08F0F34AF42A0551F35C0651F45878
:10120000D8A005EF09F007EF09F0E9EF08F01200A8
:101210000E01F48D0E01F4930E01F4910E01F59D73
:10122000980EFD6FF00EFC6F9F0EF66FF769F86970
:10123000E10EF96F010EFA6F0E01F48F600E661663
:10124000200E6716686A1E0E69166A90120029EF52
:1012500009F0ACA22EEF09F030EF09F029EF09F008
:10126000700E406E03C141F0010E00016C6F6B6B9C
:101270000E01FE811200E8CFD9FF3FEF09F0ACA2CA
:1012800044EF09F046EF09F03FEF09F0D9CF1CFF1A
:101290001200958C958A080E0E01FF6F130E0F0138
:1012A000016F006BA08A0E01FF8B1200600E6616A4
:1012B000676A686A1E0E69166A90120003513BEC59
:1012C00009F004513BEC09F01200FFFFFFFFFFFFA4
:10776000FFFFFFFF401C4C1C581C641C701C7C1C41
:10777000881C941CA01CAC1CB81CC41CD01CDD1C98
:10778000E91CF51C011D0D1D191D251D311D3D1D7B
:107790004A1D561D621D6E1D7A1D861D921D9F1D60
:1077A000AB1DB71DC31DCF1DDC1DE81DF41D001E44
:1077B0000C1E191E251E311E3D1E491E561E621E20
:1077C0006E1E7A1E871E931E9F1EAB1EB81EC41E01
:1077D000D01EDD1EE91EF51E021F0E1F1A1F261FDA
:1077E000331F3F1F4B1F581F641F701F7D1F891FB2
:1077F000961FA21FAE1FBB1FC71FD31FE01FEC1F8A
:10780000F91F052011201E202A2037204320502058
:107810005C206820752081208E209A20A720B3202C
:10782000C020CC20D920E520F220FE200B211721FA
:10783000242130213D214921562162216F217B21C4
:1078400088219521A121AE21BA21C721D321E02190
:10785000ED21F921062212221F222C223822452254
:1078600051225E226B227722842291229D22AA221B
:10787000B722C322D022DD22E922F62203230F23DE
:107880001C232923362342234F235C23692375239A
:1078900082238F239B23A823B523C223CF23DB235B
:1078A000E823F52302240E241B2428243524422413
:1078B0004E245B246824752482248F249B24A824CE
:1078C000B524C224CF24DC24E924F52402250F2585
:1078D0001C2529253625432550255D256A25762535
:1078E000832590259D25AA25B725C425D125DE25EC
:1078F000EB25F825052612261F262C263926462696
:10790000532660266D267A2687269426A126AE2643
:10791000BB26C826D526E226EF26FC2609271627F1
:10792000232730273E274B275827652772277F2795
:107930008C279927A627B327C127CE27DB27E8273F
:10794000F52702280F281C282A28372844285128E0
:107950005E286B28792886289328A028AD28BB2884
:10796000C828D528E228F028FD280A291729242923
:1079700032293F294C2959296729742981298E29BF
:107980009C29A929B629C429D129DE29EB29F9295D
:10799000062A132A212A2E2A3B2A492A562A632AF2
:1079A000712A7E2A8B2A992AA62AB42AC12ACE2A8B
:1079B000DC2AE92AF62A042B112B1F2B2C2B392B1E
:1079C000472B542B622B6F2B7C2B8A2B972BA52BB1
:1079D000B22BC02BCD2BDB2BE82BF52B032C102C43
:1079E0001E2C2B2C392C462C542C612C6F2C7C2CCF
:1079F0008A2C972CA52CB22CC02CCD2CDB2CE82C5F
:107A0000F62C042D112D1F2D2C2D3A2D472D552DE3
:107A1000622D702D7E2D8B2D992DA62DB42DC22D6E
:107A2000CF2DDD2DEA2DF82D062E132E212E2E2EF4
:107A30003C2E4A2E572E652E732E802E8E2E9B2E78
:107A4000A92EB72EC42ED22EE02EED2EFB2E092FFE
:107A5000162F242F322F402F4D2F5B2F692F762F7B
:107A6000842F922F9F2FAD2FBB2FC92FD62FE42FFE
:107A7000F22F00300D301B30293036304430523078
:107A800060306D307B3089309730A530B230C030F7
:107A9000CE30DC30E930F7300531133121312E3171
:107AA0003C314A3158316631733181318F319D31EA
:107AB000AB31B931C631D431E231F031FE310C3263
:107AC000193227323532433251325F326D327A32D7
:107AD00088329632A432B232C032CE32DB32E93250
:107AE000F7320533133321332F333D334B335933BF
:107AF00066337433823390339E33AC33BA33C83336
:107B0000D633E433F233FF330D341B3429343734A6
:107B10004534533461346F347D348B349934A73415
:107B2000B534C334D134DF34ED34FB340935163584
:107B30002435323540354E355C356A3578358635F5
:107B40009435A235B035BE35CC35DA35E835F63565
:107B50000436123620362E363C364A3658366636CD
:107B60007436823690369E36AC36BA36C836D6363D
:107B7000E436F23601370F371D372B3739374737A1
:107B80005537633771377F378D379B37A937B7370D
:107B9000C537D337E137EF37FD370B38193827387A
:107BA00036384438523860386E387C388A389838DD
:107BB000A638B438C238D038DE38EC38FA3809394B
:107BC00017392539333941394F395D396B397939AD
:107BD00087399539A339B239C039CE39DC39EA3918
:107BE000F839063A143A223A303A3F3A4D3A5B3A7B
:107BF000693A773A853A933AA13AAF3ABD3ACC3AE4
:107C0000DA3AE83AF63A043B123B203B2E3B3C3B47
:107C10004B3B593B673B753B833B913B9F3BAD3BAC
:107C2000BB3BCA3BD83BE63BF43B023C103C1E3C12
:107C30002C3C3B3C493C573C653C733C813C8F3C75
:107C40009D3CAB3CBA3CC83CD63CE43CF23C003DDD
:107C50000E3D1D3D2B3D393D473D553D633D713D3D
:107C60007F3D8E3D9C3DAA3DB83DC63DD43DE23DA5
:107C7000F03DFF3D0D3E1B3E293E373E453E533E07
:107C8000613E703E7E3E8C3E9A3EA83EB63EC43E6D
:107C9000D23EE13EEF3EFD3E0B3F193F273F353FD1
:107CA000443F523F603F6E3F7C3F8A3F983FA63F34
:107CB000B53FC33FD13FDF3FED3FFB3F094017409A
:107CC00026403440424050405E406C407A408840FC
:107CD0009640A540B340C140CF40DD40EB40F94065
:107CE000074116412441324140414E415C416A41C5
:107CF000784186419541A341B141BF41CD41DB412E
:107D0000E941F74105421342224230423E424C4291
:107D10005A426842764284429242A042AF42BD42F9
:107D2000CB42D942E742F542034311431F432D435F
:107D30003B434943584366437443824390439E43C5
:107D4000AC43BA43C843D643E443F24300440F4430
:107D50001D442B44394447445544634471447F4493
:107D60008D449B44A944B744C544D344E144EF4403
:107D7000FD440C451A452845364544455245604565
:107D80006E457C458A459845A645B445C245D045D3
:107D9000DE45EC45FA45084616462446324640463E
:107DA0004E465C466A46784686469446A246B046AB
:107DB000BE46CC46DA46E846F64604471247204718
:107DC0002E473C474A475847664774478247904783
:107DD0009E47AC47BA47C847D647E447F147FF47F5
:107DE0000D481B48294837484548534861486F4863
:107DF0007D488B489948A748B548C348D048DE48D5
:107E0000EC48FA48084916492449324940494E4944
:107E10005B496949774985499349A149AF49BD49BA
:107E2000CB49D849E649F449024A104A1E4A2C4A2D
:107E30003A4A474A554A634A714A7F4A8D4A9A4AA2
:107E4000A84AB64AC44AD24AE04AED4AFB4A094B1C
:107E5000174B254B324B404B4E4B5C4B6A4B774B91
:107E6000854B934BA14BAF4BBC4BCA4BD84BE64B0E
:107E7000F44B014C0F4C1D4C2B4C384C464C544C85
:107E8000624C6F4C7D4C8B4C994CA64CB44CC24C04
:107E9000CF4CDD4CEB4CF94C064D144D224D2F4D83
:107EA0003D4D4B4D584D664D744D814D8F4D9D4D03
:107EB000AA4DB84DC64DD34DE14DEF4DFC4D0A4E88
:107EC000184E254E334E404E4E4E5C4E694E774E08
:107ED000844E924E9F4EAD4EBA4EC84ED54EE34E96
:107EE000F04EFE4E0B4F194F264F334F414F4E4F22
:107EF0005C4F694F764F844F914F9E4FAC4FB94FB7
:107F0000C64FD44FE14FEE4FFB4F08501650235051
:107F100030503D504A505750655072507F508C50F1
:107F20009950A650B350C050CD50DA50E750F4509D
:107F300000510D511A512751345141514D515A514F
:107F40006751745180518D519A51A651B351C0510E
:107F5000CC51D951E551F251FE510B5217522352D7
:107F600030523C5201000A006400E80310270A5412
:107F7000656D7065726174757265206973000A467B
:107F8000616D696C7920436F6465000A55415254F4
:107F90003220494E4954000A20416463436F756E94
:107FA00074000A4C434420494E49540055415254F0
:107FB00020494E4954000A41444320494E49540047
:107FC0000A49324320494E4954000A6361736520CF
:107FD00030000A636173652033000A63617365349E
:107FE00020000A636173652031000A6361736520B4
:107FF0003200505952000A25750065727200000067
:00000001FF
